:020000040800F2
:10000000D8090020010100086B180008EB14000853
:1000100069180008B9010008BB1F000800000000B3
:10002000000000000000000000000000811E000829
:10003000BB010008000000006D180008831E0008C6
:100040001B0100081B0100081B0100081B01000820
:100050001B0100081B0100081B0100081B01000810
:10006000BD010008C3010008C90100081B01000808
:100070001B0100081B0100081B0100081B010008F0
:100080001B0100081B0100081B0100081B010008E0
:100090001B0100081B0100081B010008CF0100081C
:1000A0001B0100081B0100081B0100081B010008C0
:1000B0001B010008D91E00081B0100081B010008D5
:1000C0001B0100081B0100081B0100081B010008A0
:1000D0001B0100081B0100081B0100081B01000890
:1000E0001B0100081B0100081B010008DFF80CD0F1
:1000F00000F050F80048004745260008D8090020C5
:100100000648804706480047FEE7FEE7FEE7FEE7B1
:10011000FEE7FEE7FEE7FEE7FEE7FEE7D51E000886
:10012000ED000008202A04DB203A21FA02F0002129
:10013000704721FA02F3D040C2F1200291400843F7
:1001400019467047D2B201E000F8012B491EFBD2DC
:1001500070470022F6E710B513460A4604461946D2
:10016000FFF7F0FF204610BD30B50B4601460020DA
:100170002022012409E021FA02F59D4205D303FA69
:1001800002F5491B04FA02F52844151EA2F10102EA
:10019000F1DC30BD064C074D06E0E06840F001039D
:1001A00094E8070098471034AC42F6D3FFF7A2FF5B
:1001B0009C530008BC530008FEE77047042000F081
:1001C0003BB9082000F038B9102000F035B92020E4
:1001D00000F032B9044B0022DA61044A136943F09B
:1001E0000103136101807047B80500200020024020
:1001F00014480022C168CB06134904D5CA6942F0ED
:100200000202CA611022C3685B0705D5CB6943F0BF
:100210000103CB6142F00402C369DB0707D0CB695D
:1002200043F00403CB61C16921F00101C161A2F572
:100230008071013901D0C2607047C16921F00101AC
:10024000C161704700200240B805002070B5054626
:1002500000F0F4F90646114C09E0681C07D025B1FE
:1002600000F0ECF9801BA84201D9032070BDE068C2
:10027000C007F2D1E068800601D52020E060E06888
:10028000C00605D4E069C00702D1E068400703D585
:10029000FFF7AEFF012070BD002070BD00200240BE
:1002A00010B50023521C05E030F813405B1C21F808
:1002B000024B9BB29342F7D310BD2DE9F041164695
:1002C0000D46074600F070F80024761C09E02A88E5
:1002D00007EB44010023012000F026F8641CA4B2BF
:1002E000AD1CB442F3D3BDE8F04100F013B80000F8
:1002F00070B5044600F0A2F90546601C02D004481F
:100300000078044400F09AF9401BA042FAD370BD73
:10031000000100200348016941F0800101610020D3
:1003200070470000002002402DE9F05F07461C489E
:1003300088460024017E15461E46012909D0012168
:10034000814601764CF2503A5046FFF77FFF18B1D4
:1003500022E00220BDE8F09F012F02D0022F00D042
:100360000427D346DFF83CA0220128463146FFF798
:10037000D9FE81B208EB4400FFF72CFF5846FFF787
:1003800065FFDAF8102022F00102CAF8102018B92F
:10039000641CE4B2BC42E7D3002289F81820D9E7F4
:1003A000B805002000200240064900200A69120614
:1003B00007D5054A4A60054A4A600969090600D519
:1003C000012070470020024023016745AB89EFCD33
:1003D000184930B48A78022382B10124022A0FD04E
:1003E000012A09D104281ED008281ED010281ED0AA
:1003F000202801D10420087130BC70478B70FBE7C6
:10040000042808D0082809D010280AD02028F3D1C1
:1004100030BC01F009BF30BC02F0AABA30BC02F017
:10042000CDBA8C70E8E70C71E6E70B71E4E70320C6
:10043000E1E7000020000020044910B50A680242EC
:1004400002D00860FFF7C4FF10BD00001404014093
:100450002DE9F84FDFF8B891002409F1040A0AF1F8
:10046000040B23460F270BF1040EC9E00125A5401C
:100470002A40AA427DD1674ED1F804C0ACEB0608F1
:10048000B44532D014DCBCF1030F3AD009DCBCF126
:10049000000F2AD0BCF1010F1CD0BCF1020F31D1EA
:1004A0001DE0BCF1110F17D0BCF1120F2AD119E0D9
:1004B000B8F5881F19D006DCB8F5803F15D0B8F51F
:1004C000801F1FD111E0B8F5001F0ED0B8F5041F32
:1004D00018D10AE0CB6815E0CB681B1D12E0CB6891
:1004E00008330FE0CB680C330CE08B682BB1012B89
:1004F0004FF0080303D0456104E0042302E00561E6
:1005000000E00023FF2A01D8064601E000F10406BE
:100510004FEA840501D9A5F12005D6F8008007FA35
:1005200005FC28EA0C0803FA05F548EA0508C6F8B0
:1005300000804D68ED0062D5374DAE6946F001068A
:10054000AE61AD6924F0030605F001050095334D59
:1005500006EB050CDCF80850A607360F07FA06F87C
:1005600025EA0805DFF8B880404503D14FF00008C0
:1005700017E044E0DFF8AC80404502D14FF00108BD
:100580000FE0DFF8A480404502D14FF0020808E0F8
:10059000DFF89880404502D14FF0030801E04FF0AA
:1005A000040808FA06F848EA0508CCF808804D68FF
:1005B000D9F80060ED034D4601D5164300E096439F
:1005C0002E604D68DAF80060AD03554601D516433C
:1005D00000E096432E604D68DBF80060ED025D465A
:1005E00001D5164300E096432E604D68DEF80060AA
:1005F000AD02754601D5164300E096432E60641C9B
:100600000D682A46E5407FF431AFBDE8F88F000061
:1006100000040140000011100010024000000140E1
:1006200000080140000C014000100140001401408E
:100630000AB1016170470904FBE7000001488068C6
:10064000704700000001002070B5040025D094F828
:100650003D00002520B984F83C50204600F004FA03
:10066000242084F83D002068016821F00101016028
:100670002068016841F4004101602068016821F4AC
:100680000041016000F04EFB4D4A6168914201D883
:100690004C4900E04C49884201D2012070BD4B49D1
:1006A0002368B0FBF1F15E6826F03F060E435E6002
:1006B0006368934206D94FF4967359434FF47A73A3
:1006C000B1FBF3F12368491C1E6A26F03F06314353
:1006D00019626168914210D84900401EB0FBF1F2E6
:1006E000521CC2F30B02042A01D2042022E0B0FB08
:1006F000F1F0401CC0F30B001CE0A268F2B301EB68
:10070000C10303EB0116431EB3FBF6F35B1C43F47A
:1007100080431B0549D092B301EBC10202EB0111EA
:10072000401EB0FBF1F0401CC0F30B0040F48040D1
:1007300040F400402168CA694CF6FF739A431043A5
:10074000C861D4E9071001432068026822F0C002A2
:1007500011430160D4E9030101432068826848F233
:10076000FF339A4311438160D4E9050108432168AE
:10077000CA6822F0FF021043C86001E00EE016E0F4
:100780002068016841F0010101602564202084F89F
:100790003D00256384F83E50002070BD01EB41060A
:1007A000431EB3FBF6F35B1CB3E70120C2E701EB8A
:1007B0004101401EB0FBF1F0401CC0F30B00B7E755
:1007C000A086010080841E0000093D0040420F0009
:1007D0002DE9FF4F81B089460446FFF72FFF0546FC
:1007E00094F83D004FF0010820287DD11923012203
:1007F00050492046009500F005FF002874D194F878
:100800003C00012870D0012084F83C002068016879
:10081000C90703D1016841F0010101602068016846
:1008200021F400610160242084F83D000026266444
:100830004148E0624FF0011B20272068016841F425
:10084000807101600095002259462046049B00F00B
:10085000D9FE50B120680068C00502D54FF4007081
:100860002064032005B0BDE8F08F216809F0FE0088
:100870000861FFF7E3FE2168054648694969C0F34E
:100880004000C1F380214FF0A00A0FE0FFF7D6FE31
:10089000411B0498814200D808B984F83DA0216822
:1008A00048694969C0F34000C1F3802194F83D20B4
:1008B000A02A02D008B90029E8D084F83D70206849
:1008C0004169C943890716D4016841F40071016088
:1008D0002068416980691923012216492046009544
:1008E00000F090FEB8B900E021E084F83D7084F893
:1008F0003C600020B6E7016841F4007101602168A6
:100900006FF480604861192301220A49204600954E
:1009100000F078FE08B10120A4E7039808F101086F
:1009200080458AD384F83D7084F83C60F3E7022068
:1009300098E70000020010000000FFFF2DE9F84FCB
:100940001F4690468A460446DDF82890FFF776FE5B
:10095000054694F83D0020287FD119230122404903
:100960002046009500F04EFE002876D194F83C0019
:10097000012872D0012084F83C0020680168C90772
:1009800003D1016841F0010101602068016821F490
:1009900000610160212084F83D00102084F83E00B1
:1009A00000262664C4F824806785608D20852D4844
:1009B000E0622B464A465146204600F0AFFD90B912
:1009C000206841698069009036E02A464946204601
:1009D00000F097FE50B1206C042804D12068016813
:1009E00041F4007101600120BDE8F88F606A216860
:1009F00000780861606A401C6062618D491E6185F3
:100A0000218D491E89B2218522685369DB435B072A
:100A10000BD451B100781061606A401C6062608D37
:100A2000401E6085208D401E20852A46494620466E
:100A300000F0C2FD0028CED1208D0028C5D154F889
:100A40003D0B016841F400710160202004F81E098B
:100A5000E67766770020C7E7FFE70220C4E70000DB
:100A6000020010000000FFFF10B586B000210091C9
:100A70000191029103910068104988421BD1104CEA
:100A8000A06940F00800A061A069694600F0080074
:100A900004904FF4406000901220019003200390D6
:100AA0000848FFF7D5FCE06940F48000E061E069A8
:100AB00000F48000049006B010BD00000058004013
:100AC00000100240000C0140024881680278114485
:100AD0008160704700010020074810B5016841F0AF
:100AE00010010160032000F075F8002000F006F806
:100AF00000F024F8002010BD0020024070B50D4D1C
:100B000004464FF47A712878B1FBF0F00A4909687D
:100B1000B1FBF0F000F0DCFA48B9102C07D200224B
:100B20002146501E00F036F800206C6070BD012098
:100B300070BD0000000100200C0100200C4808B529
:100B4000816941F001018161816901F00101009138
:100B5000C16941F08051C161C06900F080500090CE
:100B60000448416821F0E06141F00071416008BD36
:100B70000010024000000140002809DB00F01F02C5
:100B8000012191404009800000F1E020C0F80011EF
:100B900070470000F0B40E4B1B680C46C3F30223F1
:100BA000C3F10705042D00D90425191D072901D219
:100BB000002300E0DB1E012606FA05F1491E214054
:100BC00099409E40761E16403143F0BC01F00ABAAF
:100BD0000CED00E0064900F0070208684FF6FF033D
:100BE000184040EA0220034A1043086070470000A2
:100BF0000CED00E00000FA052DE9F0470F46050076
:100C000061D0434E306800F00700B84209D2306826
:100C100020F0070038433060306800F00700B84229
:100C200051D128683B4C810712D5400703D5606835
:100C300040F4E06060602878000703D5606840F405
:100C4000605060606068A96820F0F0000843606050
:100C50002878C00728D06868012810D021680228A9
:100C600010D0890700292EDA616821F003010143C1
:100C70006160FFF7E3FC804641F288390DE02168AE
:100C80008903EFE78901EDE7FFF7D8FCA0EB080146
:100C9000494502D90320BDE8F0876068696800F023
:100CA0000C00B0EB810FEFD1306800F00700B842C4
:100CB0000BD9306820F0070038433060306800F00E
:100CC0000700B84201D00120E5E72878400705D5A4
:100CD0006068E96820F4E0600843606028780007F5
:100CE00006D56068296920F4605040EAC100606060
:100CF00000F028F86168084AC1F30311515CC8404C
:100D00000649086006480068FFF7F8FE0020C2E7C1
:100D10000020024000100240845300080C01002013
:100D2000040100200448054900684968044AC1F3E9
:100D30000221515CC84070470C01002000100240A5
:100D40009453000812A185B00FC98DE80F0014A0BC
:100D5000144A006804905168134801F00C03042BF6
:100D600010D0082B0ED1C1F38343C9031DF8030033
:100D70000AD5516804AAC1F34041515C0A4A504364
:100D8000B0FBF1F005B0704708494843FAE70000AE
:100D900002030405060708090A0B0C0D0E0F1010BC
:100DA000010200000010024000127A0000093D001C
:100DB0002DE9F84F040070D02078C04DC00749D00D
:100DC0006868C0F38100012807D06868C0F381001B
:100DD000022809D16868C00306D52868800339D580
:100DE00060680028E7D035E06068B0F5803F0BD040
:100DF00010B1B0F5A02F11D0286820F48030286001
:100E0000286820F4802002E0286840F480302860C0
:100E1000606890B1FFF712FC06460AE0286840F4CB
:100E200080202860F0E700BFFFF708FC801B6428E3
:100E300073D828688003F7D50CE0FFF7FFFB064660
:100E400005E000BFFFF7FAFB801B6428F0D8286894
:100E50008003F7D420789A4E80074FF001094FF0B5
:100E6000000839D5686810F00C0F07D06868C0F327
:100E70008100022809D16868C00306D42868800769
:100E800014D52069012808D110E02069B0B1C6F856
:100E90000090FFF7D3FB074605E00AE1FFF7CEFB22
:100EA000C01B0228C4D828688007F7D52868616964
:100EB00020F0F80040EAC10028600DE0C6F800808C
:100EC000FFF7BCFB074604E0FFF7B8FBC01B022896
:100ED00023D828688007F7D4207800072CD57948D4
:100EE000A169D9B1C0F80090FFF7A8FB074604E05C
:100EF000FFF7A4FBC01B02280FD8686A8007F7D54C
:100F000071484FF4FA510068B0FBF1F0009000BF57
:100F10000098411E0091FAD20EE080E0C0F80080F7
:100F2000FFF78CFB074604E0FFF788FBC01B022895
:100F300075D8686A8007F7D42078400760D5E869DB
:100F40000027C00008D4E86940F08050E861E869F3
:100F5000012700F0805000905C480168C90513D457
:100F60000168834641F480710160FFF767FB8246A8
:100F700006E000BFFFF762FBA0EB0A0064284ED832
:100F8000DBF80000C005F5D5E06801280AD008B1FB
:100F9000052813D0286A20F001002862286A20F072
:100FA000040002E0286A40F001002862E06841F293
:100FB000883B98B1FFF742FB82460BE0286A40F07D
:100FC00004002862EEE700BFFFF738FBA0EB0A0140
:100FD00059455AD8286A8007F6D50CE0FFF72EFB52
:100FE000824605E0FFF72AFBA0EB0A0159454CD8E1
:100FF000286A8007F6D41FB1E86920F08050E861C4
:10100000E06988B36968C1F38101022944D00228EC
:10101000C6F8608004D0FFF711FB044638E034E0E6
:10102000FFF70CFB074604E0FFF708FBC01B022894
:101030002BD828688001F7D4206AB0F5803F05D10D
:101040006868A16820F4003008436860D4E90801AA
:101050000843696821F4741108436860C6F8609019
:10106000FFF7ECFA044606E025E000BFFFF7E6FADA
:10107000001B022809D828688001F7D51BE000BFB3
:10108000FFF7DCFA001B022802D90320BDE8F88F25
:1010900028688001F4D40EE00128F7D06868226A3D
:1010A00000F48031914204D1616A00F470108842EA
:1010B00001D00120EAE70020E8E70000001002402C
:1010C00000004242800442420C01002000700040B7
:1010D00010B5401EB0F1807F01D3012010BD4FF04C
:1010E000E02460610F21601700F07CFF0020A06108
:1010F00007202061002010BD7047704770B590F840
:101100003C20012A26D0012480F83C40022280F8AD
:101110003D2003685A689D6822F070060A683243D1
:101120005A600D4B02689A4208D0B2F1804F05D048
:101130000A4B9A4202D00A4B9A4204D1496825F0E0
:1011400080031943916080F83D40002180F83C10F5
:10115000084670BD022070BD002C01400004004014
:101160000008004010B5040003D094F83D0010B111
:1011700007E0012010BD002084F83C00204600F06C
:101180001FF8022084F83D00211D206800F0AAFE0F
:10119000012084F8460084F83E0084F83F0084F87B
:1011A000400084F8410084F8420084F8430084F849
:1011B000440084F8450084F83D00002010BD000084
:1011C00008B500680B49884212D10B48C16941F04B
:1011D0000201C161C069002200F0020000900321F9
:1011E0001D20FFF7D7FCBDE808401D20FFF7C4BC59
:1011F00008BD0000000400400010024090F83D10BF
:10120000012901D001207047022180F83D100168BA
:10121000CA6842F00102CA6000680B49884208D0DF
:10122000B0F1804F05D00949884202D00849884270
:1012300004D1816801F00701062903D0016841F05B
:101240000101016000207047002C014000040040B3
:101250000008004070B5044690F83C00012817D003
:10126000012584F83C50022084F83D002068826803
:1012700022F0770222F47F4282600868502830D042
:101280000DDC20284DD005DC98B310283BD148E078
:10129000022070BD302844D0402834D139E0602885
:1012A00028D0702806D0B0F5805F2CD0B0F5005F54
:1012B00029D10AE0CB68D1E90121206800F048FE7D
:1012C0002068816841F0770109E0CB68D1E901210C
:1012D000206800F03DFE2068816841F48041816013
:1012E00011E0CA684968206800F044FE5021206877
:1012F00007E016E0CA684968206800F04CFE6021EB
:10130000206800F02FFE84F83D50002084F83C0057
:1013100070BDCA684968206800F02CFE4021206832
:10132000EFE7226801461046EBE7704770B50446C8
:10133000006801694FF00005C943890715D4C168E9
:10134000C943890711D4E91E016101202077206873
:1013500080698007204602D0FFF7E7FF04E000F035
:1013600098F8204600F096F8257720680169C9436F
:10137000490717D4C168C943490713D46FF0040162
:101380000161022020772068806910F4407F2046A8
:1013900002D0FFF7CAFF04E000F07BF8204600F01F
:1013A00079F8257720680169C943090716D4C1680F
:1013B000C943090712D46FF00801016104202077A6
:1013C0002068C0698007204602D0FFF7AEFF04E026
:1013D00000F05FF8204600F05DF82577206801698D
:1013E000C943C90617D4C168C943C90613D46FF0ED
:1013F00010010161082020772068C06910F4407F47
:10140000204602D0FFF791FF04E000F042F82046AA
:1014100000F040F8257720680169C943C90708D161
:10142000C168C943C90704D1891E0161204600F083
:1014300033F820680169C943090609D4C168C94362
:10144000090605D46FF0800101612046FFF754FEC4
:1014500020680169C943490609D4C168C9434906DE
:1014600005D46FF040010161204600F03DF820688E
:101470000169C94389060BD4C168C943890607D4E9
:101480006FF0200101612046BDE87040FFF735BED6
:1014900070BD70477047000010B5114900680968B9
:1014A00088421CD10F4CE078002818D001F058FB7E
:1014B00001F0EAF900F0E0FE18B1BDE8104000F0DC
:1014C00025BF00F0F3FE30B1E088401CE08000F062
:1014D00059FE01F00FFABDE8104001F01DBA10BD31
:1014E00064050020200000207047FEE701684A697B
:1014F000D24352050FD46FF480624A61002140F854
:10150000301F202242738173026942F0040202619B
:10151000017301207047002070470000F8B50446B1
:10152000C06A1E460D461746082807D0012805D078
:1015300010F5803F02D0206B122804D1206801688A
:1015400041F480710160134600224FF001112046E2
:10155000009600F057F840B120680068C00502D539
:101560004FF4007020640320F8BD2069B0F5804F6F
:101570000ED00620216800EAD51040F0F000086186
:1015800033463A460B49204600F070F878B902E03D
:1015900005F0FE0000E0E8B2216808610549334625
:1015A0003A46891F204600F061F80028DCD001206F
:1015B000F8BD00000800010070B516460D4604464F
:1015C0000DE02046FFF792FF08B1012070BD681CB6
:1015D00005D0FFF733F8801BA84207D835B1206843
:1015E0004069C0434007ECD4002070BD002044F89F
:1015F000300F20216173A073216941F02001216126
:101600002073E2E72DE9F0471E4690460D4604465A
:10161000C1F30747DDF8209008E0701C06D0FFF703
:101620000DF8A0EB0900B0420FD876B12068012F69
:1016300018D0806925EA00000004000C14D00021B5
:101640004145EAD00020BDE8F087002044F8300F83
:1016500020216173A073216941F020012161207371
:101660000120F0E74069E5E70121E9E72DE9F047CE
:101670009A4691460E46044600254FF02008C1F3D5
:10168000074725E020684069C043400514D420681E
:10169000016841F40071016021686FF48060486165
:1016A000256384F83D8084F83E50206C40F00400AF
:1016B000206484F83C501FE0B9F1FF3F08D0FEF7EA
:1016C000BDFFA0EB0A0149450CD8B9F1000F09D0C4
:1016D0002068012F13D0806926EA00000004000C66
:1016E0000BD0CFE744F8305F84F80D80A5732069F4
:1016F00040F02000206125730120BDE8F08740699B
:10170000EAE770B516460D4604460DE02046FFF7A1
:10171000EDFE08B1012070BD681C05D0FEF78EFFFC
:10172000801BA84207D835B120684069C043000635
:10173000ECD4002070BD002044F8300F20216173EC
:10174000A073216941F0200121612073E2E70000CC
:1017500070B586B000252C4800950195029503953B
:10176000816941F020018161816901F020010491CA
:10177000816941F004018161816901F004010491F2
:10178000816941F0080181618069204E00F0080004
:101790000122049011463046FEF74AFF0220CDE9AF
:1017A000025001240094694601943046FEF750FE31
:1017B0003C2000901648CDE9010469463046FEF70A
:1017C00047FE002202210820FFF7E4F90820FFF776
:1017D000D3F9002202210920FFF7DCF90920FFF7E5
:1017E000CBF9002202210A20FFF7D4F90A20FFF7E3
:1017F000C3F9002202211720FFF7CCF91720FFF7C9
:10180000BBF906B070BD00000010024000080140A6
:101810000000211010B586B00024124800940194F5
:101820000294039404940E490594016041F61F410B
:10183000C0E9011440F6C311C0E903148461FFF745
:1018400091FC4FF48050009069460648FFF702FD76
:10185000049404A903480594FFF750FC06B010BD9A
:101860000004004064050020FEE77047704710B593
:10187000002000F057F9BDE8104000F0DDBA00008C
:101880002DE9FE4F0746C2F1010014460FFA80F918
:10189000C2EBC43040000FFA80FB0D46081981B23C
:1018A00098464FF0010A0026B8B21A4600F01AF91D
:1018B000281B81B2B8B2424600F014F938190290E0
:1018C000A9B280B2424600F00DF9381B0190A9B2CE
:1018D00080B2424600F006F90298ABB2CDF8008023
:1018E00082B2A9B246E000BFB9F1000F09DB0BF1EB
:1018F00002000FFA80FB641E09EB0B0024B20FFA02
:1019000080F90AF102000FFA80FA761C09EB0A004E
:1019100036B20FFA80F9281983B281B2B81BCDE92B
:10192000008007EB060C1FFA8CF2CDF808C080B2DD
:1019300000F053F80198291BDDF808C08BB282B281
:10194000CDF8008089B21FFA8CF000F046F8391B00
:10195000A8198AB2029183B281B23819CDE9008008
:1019600080B200F03AF80299A81B8AB283B2CDF88F
:10197000008081B2019880B200F02FF8A642B3DB5C
:10198000BDE8FE8F2DE9F8431F46DDF820900D4697
:10199000064680281FD2402D1DD2B018802802D3C1
:1019A000C6F1800082B2E819402802D3C5F1400098
:1019B00087B2002406EB02080BE0281983B281B23B
:1019C0001FFA88F23046CDF8009000F006F8641C4B
:1019D000E4B2BC42F1D9BDE8F8832DE9FC4F1D46C5
:1019E00014460E460746802800D37F27802C00D35C
:1019F0007F24402E00D33F26402D00D33F25A74211
:101A000001D2E01B00E0381B0FFA80F9AE4201D290
:101A1000A81B00E0701B0FFA80FA4FF0FF30A742BE
:101A200001D2012100E001460191AE4200D2012025
:101A300083464846D14501DCCAF1000000EBD07076
:101A400040F34F08B9F1000F23D0BAF1000F35D0A1
:101A5000C9F100000090314638460B9A00F042F878
:101A6000A74201D1AE4227D000994046884506DD05
:101A7000A8EB0A010FFA81F8019939448FB2504559
:101A8000E9DA08EB09000FFA80F806EB0B0086B2E2
:101A9000E1E7B54202D22846354686B2BC4200D2C2
:101AA000A7B234B206E0A1B238460B9A00F01AF899
:101AB000641C24B2AC42F6DDBDE8FC8FB54200D216
:101AC000AEB2BC4202D220463C4687B23DB206E0EE
:101AD000A8B231460B9A00F005F86D1C2DB2A54254
:101AE000F6DDE9E770B5802813D2402911D20B4BFF
:101AF000012401F007051E79AC40094BC90800EB31
:101B0000C1100EB132B101E0012A03D0195CA1432A
:101B1000195470BD195C2143FAE700001800002039
:101B20001001002028B1FF224FF480610248FEF727
:101B300009BB0022F8E7000010010020014A1080D4
:101B4000518070471800002010B500F0D7FF44F610
:101B50002063012278215448FEF73AFE08B10020A4
:101B600010BD40F6C210401EFDD1AE2200217820EB
:101B700000F0CAFF20220021782000F0C5FF1022CB
:101B80000021782000F0C0FFB0220021782000F072
:101B9000BBFFC8220021782000F0B6FF00221146CA
:101BA000782000F0B1FF10220021782000F0ACFF77
:101BB00040220021782000F0A7FF81220021782018
:101BC00000F0A2FFFF220021782000F09DFFA1225B
:101BD0000021782000F098FFA6220021782000F054
:101BE00093FFA8220021782000F08EFF3F220021E1
:101BF000782000F089FFA4220021782000F084FFE3
:101C0000D3220021782000F07FFF002211467820A7
:101C100000F07AFFD5220021782000F075FFF02235
:101C20000021782000F070FFD9220021782000F0F8
:101C30006BFF22220021782000F066FFDA220021CB
:101C4000782000F061FF12220021782000F05CFF74
:101C5000DB220021782000F057FF2022002178208D
:101C600000F052FF8D220021782000F04DFF142259
:101C70000021782000F048FFAF220021782000F0FA
:101C800043FF2E220021782000F03EFF0020FFF7C6
:101C900049FF00F0D1F80548002101804180012171
:101CA0004171084610BD00001005002018000020FA
:101CB0002DE9F047814625480D46924601882A784D
:101CC0001144802905D2804640886978084440281C
:101CD00002D30020BDE8F08700262AE0A9F1200108
:101CE00001FB00606A68002432F810701DE000BF3C
:101CF00007FA04F0000409D5B8F80210B8F800009B
:101D00003144204489B280B252460BE0BAF1000F50
:101D10001AD00022B8F80210B8F80000314420446C
:101D200089B280B2FFF7DEFE641C2878A042DFD8BB
:101D3000761C6878B042D1D8B8F800102A784846A6
:101D40001144A8F80010C5E70122E3E718000020BD
:101D500070B515460E46044609E02A463146FFF79F
:101D6000A7FF2178884201D0C8B270BD641C2078DA
:101D70000028F2D1C0B270BD70B50C4605462722CE
:101D80000021782000F0C0FE00221146782000F0EB
:101D9000BBFE2A460021782000F0B6FE0022114644
:101DA000782000F0B1FE22460021782000F0ACFE41
:101DB00000221146782000F0A7FEFF2200217820A3
:101DC00000F0A2FEBDE870402F220021782000F034
:101DD0009BBE70B50C46054626220021782000F0F7
:101DE00093FE00221146782000F08EFE2A46002144
:101DF000782000F089FE00221146782000F084FE51
:101E000022460021782000F07FFE00221146782033
:101E100000F07AFEFF220021782000F075FEBDE878
:101E200070402F220021782000F06EBE2E2200216B
:101E3000782000F069BE000070B5104D002400BF8E
:101E400004F1B000C2B20021782000F05DFE002253
:101E50001146782000F058FE10220021782000F072
:101E600053FE05EBC41280234021782000F05CFE75
:101E7000641CE4B2082CE3D370BD00001001002004
:101E80007047FEF721BE30B58FB028216846FEF7B7
:101E900060F914210AA8FEF75CF901210804CDE9D4
:101EA00000100024029402250491CDE907504FF45C
:101EB000E01009906846FEF77BFF0F20CDE90A0588
:101EC0006802CDE90C4002210AA80E94FEF794FEA8
:101ED0000FB030BD704700000148FFF727BA00007F
:101EE00064050020F0B50268164B174C174D4FF0F3
:101EF0008047984205D0B84203D0A04201D0A84202
:101F000003D122F070064A683243984205D0B842A5
:101F100003D0A04201D0A84203D122F44074CA6881
:101F200022434C6922F08002224302608A68C26226
:101F30000A688262984201D1096901630121416105
:101F4000F0BD0000002C01400004004000080040EB
:101F500010B5846842EA032224F47F440A432243F2
:101F6000826010BD826822F070020A4342F00701CD
:101F70008160704710B5036A046A24F001040462AA
:101F8000846924F0F00444EA021423F00A020A43AC
:101F90008461026210BD10B5036A23F0100303626E
:101FA0008369046A23F4704343EA023224F0A003F5
:101FB00043EA01118261016210BDFEE70FB4084BD4
:101FC00010B504A902AA039800F02CF8044602A94F
:101FD000002000F0D1F8204610BC5DF814FB000092
:101FE000792100080907090E002804DB00F1E02030
:101FF00080F80014704700F00F0000F1E02080F836
:10200000141D704702E008C8121F08C1002AFAD147
:1020100070477047002001E001C1121F002AFBD168
:10202000704700002DE9FF4F89B09B46044600250C
:1020300006E025280BD05A460B999047641C6D1C6E
:1020400020780028F5D10DB02846BDE8F08F002794
:10205000B8460122474900E0074314F8013F203BFE
:1020600002FA03F00842F7D120782E2819D114F88B
:10207000010F47F004072A280ED06FF02F022078B6
:10208000A0F1300109290CD808EB880102EB4101CD
:1020900000EB0108641CF2E70A98641C50F8048BFA
:1020A0000A9020780028CED0642808D0692806D06D
:1020B00075281ED05A460B9990476D1C58E00A9916
:1020C0004FF00A0901C90A91002802DA40422D2185
:1020D00002E0390504D52B218DF82010012103E001
:1020E000F90704D02021F7E78A4608AE0DE0002169
:1020F000FAE70A994FF00A0901C90A91F7E7494638
:10210000FEF732F8303106F8011D0028F7D1ADEBAB
:10211000060000F12009780701D44FF00108C845F6
:1021200002DDA8EB090000E000208046002706E061
:1021300008A85A46C05D0B9990476D1C7F1C5745F7
:10214000F6DB04E030205A460B9990476D1CB8F13D
:102150000001A8F10108F5DC05E016F8010B5A466C
:102160000B9990476D1CB9F10001A9F10109F4DC4C
:10217000641C65E7092801000A68531C0B60107095
:102180007047000010B5FEF759FA054900220861B2
:10219000C860BDE8104001210248FEF749BA0000BE
:1021A000200000200008014010B5FEF747FA07495B
:1021B0000861C968401AB0F5967F06D30122BDE8D0
:1021C000104011460248FEF733BA10BD200000202F
:1021D0000008014010B586B0002412490094019413
:1021E0000294039404940E4A05940A6041F61F4237
:1021F0004A60C1E902400C6108468C61FEF7B2FFFB
:102200004FF48050009069460648FFF723F8049485
:1022100004A904480594FEF771FF06B010BD000044
:102220000004004064050020124810B5417811B147
:1022300001290CD019E00121417000230222142150
:102240006420FFF71DFB0123022223210AE0002165
:1022500041700B46022223216420FFF711FB01236A
:10226000022214216420FFF70BFBBDE81040FFF7AA
:10227000E3BD0000200000200B4AA2F130001368EB
:1022800081698B420BD052688A4208D000F1380134
:10229000C0690A68824202D04968814201D10120A6
:1022A000704700207047000050000020164810B50D
:1022B000026A81698B1A426AC16900798A1A1249D5
:1022C0004C6AC969091B891C01280DD06FF00104F3
:1022D00002280FD00C490B6A8969C91A891C032886
:1022E0000BD004280CD00DE0022B0BDC042909D8FC
:1022F000012010BDA342F9DA04E0022AF6DD01E074
:10230000A242F3DA002010BD200000202DE9F041A8
:10231000FFF7ADFA00210846FFF710FC0122404903
:1023200040A0FFF715FD00214820FFF707FC3F4DB7
:102330003FA105F12800EA88FFF740FE0122384955
:1023400005F12800FFF704FD10210B20FFF7F6FB35
:102350000122334937A0FFF7FBFC26210B20FFF7B2
:10236000EDFB01222E4935A0FFF7F2FCFFF764FDDB
:1023700000F082FB052233493348FDF79EFF40F60B
:10238000B830FDF7B5FFFFF772FA00210846FFF7F6
:10239000D5FB012222492DA0FFF7DAFC0024DFF84B
:1023A000A480132704EB840007EB4006B1B20020A1
:1023B000FFF7C4FB1D48621C1DA12830FFF7FEFD7E
:1023C0001A48012224492830FFF7C2FC0122224981
:1023D00022A0FFF7BDFCB1B20F20FFF7AFFB1348FF
:1023E00038F8142012A12830FFF7E8FD0F48012229
:1023F00019492830FFF7ACFC641C052CD2DBFFF731
:102400001BFD41F28830FDF773FFFFF730FA002023
:10241000E870A870E880BDE8F04100F021B8000045
:102420000800002053636F72653A200020000020EE
:102430002564000047414D45000000004F564552BD
:1024400000000000AC05002000FC0008546F702064
:1024500073636F72653A2000000000202D3E00007B
:10246000F8B55F4C00202021E0803422C4E9061238
:10247000012525716071C4E90812052259495A489D
:10248000FDF70EFF00210846FFF758FB01225749D0
:1024900057A0FFF75DFC14210B20FFF74FFB012233
:1024A000564957A0FFF754FC32210020FFF746FBA6
:1024B0000122554955A0FFF74BFCFFF7BDFC40F248
:1024C000DC560DE00F210020FFF783FC3046FDF7BE
:1024D0000FFF0F210020FFF74FFC3046FDF708FFEC
:1024E000A0780028EED0FFF7A1FCFFF7C0F900218B
:1024F0000846FFF723FB01223C4948A0FFF728FCD0
:1025000014210020FFF71AFB01223F4946A0FFF7E4
:102510001FFC00F079FA23210020FFF70FFB0122B6
:10252000394943A0FFF714FC00F08AFA0123022284
:1025300014216420FFF7A4F9FFF77EFC02E00120DC
:10254000FDF7D6FEA0780228F9D0FFF790F9002118
:102550000846FFF7F3FA0122244937A0FFF7F8FBFA
:1025600000214820FFF7EAFA1D48E28834A128300C
:10257000FFF724FD1A4801221C492830FFF7E8FB29
:10258000174E00953836A6F108073088B98883B20F
:102590008AB281B2388880B2FFF71FFA0095B088FE
:1025A000318883B2388889B282B280B2FFF715FAD7
:1025B0000095B088B98883B28AB281B2388880B277
:1025C000FFF70BFA0095B088318883B2B88889B2DA
:1025D00082B280B2FFF701FAFFF72EFCE570F8BD7A
:1025E00020000020AC05002000FC000808000020AE
:1025F0005072656461746F7200000000100000206A
:1026000047414D4500000000000000206D616465F9
:10261000206279204478487767000000534554557C
:1026200050204D4F444500004C6576656C3A2000C3
:10263000536F756E643A200053636F72653A2000E1
:1026400025640000FEF748FAFFF71DFCFFF780F84D
:10265000114810494FF48042016010494160002147
:102660008160C0E9031241618161C1610162FDF7CE
:10267000EBFFFFF7CFF808485430FEF7BFFDFFF738
:1026800063FAFFF7EDFE00F047F900BFFFF78CFD9E
:10269000FCE700000058004010050020801A0600EA
:1026A00008B500200090064806231A46818B008B4F
:1026B000C91EC01E89B280B2FFF764F908BD0000D0
:1026C0002000002038B56F4C012320462279C169D3
:1026D0008069C91EC01E012A39D0022A6ED0032A81
:1026E0007ED0042A69D10093062389B280B21A46AB
:1026F000FFF748F960790090A18BC81C83B2208B4A
:1027000089B2401E82B280B2FFF767F9607900900B
:10271000A08B258BC11C8BB281B2AAB2A8B2FFF7E5
:102720005CF960790090A18BC81C83B2208B89B2C0
:10273000401C82B280B2FFF750F960790090A08B04
:10274000C11C248B8BB2A41CA2B281B232E00093D4
:10275000062389B280B21A46FFF714F96079009017
:10276000A18B208B491E82B28BB2C01E89B280B26F
:10277000FFF733F960790090208BA18B82B28BB286
:10278000C01E89B280B2FFF728F960790090A18B52
:10279000208B491C82B28BB2C01E89B280B2FFF777
:1027A0001CF960790090A08B248B801CA2B283B2AC
:1027B00081B2E41EA0B2FFF710F938BD00930623E2
:1027C00089B280B21A46FFF7DDF860790090A18BDC
:1027D000208B491EC21C8BB292B289B280B200E03B
:1027E00021E0FFF7FAF860790090208BA18BC21CE2
:1027F0008BB292B289B280B2FFF7EFF860790090A5
:10280000A18B208B491CC21C8BB292B289B280B2C0
:10281000FFF7E3F860790090A08B248B801CE11C0B
:1028200083B28AB291E70093062389B280B21A4636
:10283000FFF7A8F860790090A18BC81E83B2208BA7
:1028400089B2401E82B280B2FFF7C7F8607900906B
:10285000A08B258BC11E8BB281B2AAB2A8B2FFF7A2
:10286000BCF860790090A18BC81E83B2208B89B21E
:10287000401C82B280B2FFF7B0F860790090A08B64
:10288000C11E5EE72000002010B5FFF709FF0C48CD
:102890000179012909D002290AD003290CD0042981
:1028A00002D1C169491CC16110BD8169491E01E0A5
:1028B0008169491C816110BDC169491EF3E70000AF
:1028C00020000020044800230122818C008C09B2E2
:1028D00000B2FEF7D5BF000020000020044801230D
:1028E0001A46818C008C09B200B2FEF7C9BF000005
:1028F0002000002010B5FFF7E5FF064AA2F14000D6
:10290000C18852F82120026200F1900252F8211091
:10291000416210BD6000002008B5FFF7C1FEFFF75F
:10292000D1FF00214620FFF709F90E480EA1C28809
:102930002830FFF743FB0B4801220C492830FFF7F2
:1029400007FA01200F230090802219460020FFF78C
:1029500044F8FFF7B7FEFFF7C1FFBDE80840FFF7F7
:102960006BBA000020000020256400000800002051
:1029700010B5114C607848B101281CD12078C0F105
:1029800001002070BDE8104000F05AB860690528C9
:102990000FD0401C606100F037F860696FF01801DB
:1029A000484340F6C311BDE8104001EB0010FFF7AB
:1029B00011BC0120EEE710BD2000002010B5114C25
:1029C000607848B101281BD12078C0F10100207047
:1029D000BDE8104000F034B8606978B1401E606115
:1029E00000F012F860696FF01801484340F6C31117
:1029F000BDE8104001EB0010FFF7ECBB0520EEE74F
:102A000010BD00002000002010B514214820FFF761
:102A100095F8084808A142690830FFF7CFFA054841
:102A2000012206490830FFF793F9BDE81040FFF78F
:102A300003BA0000200000202564000000000020F0
:102A400010B523214820FFF779F8074807494FF0D0
:102A50000102007808B106A000E006A0FFF778F9AF
:102A6000BDE81040FFF7E8B920000020000000207A
:102A70004F4E20004F4646001E4A1F481188C0880E
:102A800081420CD25FF0010102EB410333F8023CBA
:102A900022F81130491C0529F6DB10807047518857
:102AA00081420CD25FF0020102EB410333F8023C99
:102AB00022F81130491C0529F6DB508070479188B7
:102AC00081420CD25FF0030102EB410333F8023C78
:102AD00022F81130491C0529F6DB90807047D18817
:102AE000814202D21181D080704711898142FBD28C
:102AF00010817047AC050020200000200148401ED6
:102B0000FDD1704790D003001CB502238DF804104E
:102B10000A2100918DF80520014601AA0148FDF720
:102B20000DFF1CBD1005002070B5C2B000248DF84B
:102B3000041001A904E0155D0E19641C7570E4B25F
:102B40009C42F8D30A2100915B1C01469BB201AA6A
:102B50000248FDF7F3FE42B070BD000010050020F2
:102B600002484179C1F10101417170472000002004
:102B70000000000000000000000000000000000055
:102B800000000000001000100010001000100010E5
:102B900000000010000000000028002800280000AD
:102BA00000000000000000000000000000240024DD
:102BB000007C00240048007C004800480000000021
:102BC00000380054005000380014005400540038FD
:102BD000001000000020005400580030002800546D
:102BE0000014000800000000001000280028001059
:102BF00000340048004800340000000000100010BD
:102C000000100000000000000000000000000000B4
:102C100000080010002000200020002000200020DC
:102C2000001000080020001000080008000800083C
:102C300000080008001000200010003800100028D4
:102C40000000000000000000000000000000000084
:102C500000100010007C00100010000000000000B8
:102C60000000000000000000000000000000001054
:102C700000100010000000000000000000000038FC
:102C80000000000000000000000000000000000044
:102C90000000000000000010000000000008000814
:102CA00000100010001000100020002000000000A4
:102CB00000380044004400540044004400440038FC
:102CC0000000000000100030005000100010001044
:102CD0000010001000000000003800440044000410
:102CE000000800100020007C0000000000380044B4
:102CF0000004001800040004004400380000000034
:102D000000080018002800280048007C000800087F
:102D100000000000007C0040004000780004000437
:102D200000440038000000000038004400400078F3
:102D3000004400440044003800000000007C00040F
:102D400000080010001000200020002000000000FB
:102D50000038004400440038004400440044003877
:102D6000000000000038004400440044003C00041F
:102D700000440038000000000000000000100000C7
:102D80000000000000000010000000000000000033
:102D900000000010000000000000001000100010F3
:102DA00000000000000C003000400030000C00006B
:102DB00000000000000000000000007C0000007C1B
:102DC000000000000000000000000000006000188B
:102DD00000040018006000000000000000380044FB
:102DE00000040008001000100000001000000000A7
:102DF00000380044004C0054005C004000400038A3
:102E00000000000000100028002800280028007C96
:102E100000440044000000000078004400440078B2
:102E200000440044004400780000000000380044E2
:102E30000040004000400040004400380000000016
:102E40000070004800440044004400440048007002
:102E500000000000007C00400040007C004000407A
:102E60000040007C00000000007C00400040007832
:102E700000400040004000400000000000380044D6
:102E800000400040005C00440044003800000000A6
:102E9000004400440044007C0044004400440044DA
:102EA000000000000038001000100010001000109A
:102EB00000100038000000000004000400040004BA
:102EC00000040004004400380000000000440048F2
:102ED000005000600050004800480044000000001E
:102EE0000040004000400040004000400040007CA6
:102EF000000000000044006C006C005400440044DA
:102F000000440044000000000044006400640054D9
:102F10000054004C004C0044000000000038004405
:102F20000044004400440044004400380000000015
:102F30000078004400440044007800400040004015
:102F400000000000003800440044004400440044F5
:102F5000005400380004000000780044004400449D
:102F60000078004800480044000000000038004499
:102F70000040003000080004004400380000000059
:102F8000007C001000100010001000100010001055
:102F90000000000000440044004400440044004499
:102FA00000440038000000000044004400440028B1
:102FB0000028002800100010000000000044004419
:102FC000005400540054006C002800280000000049
:102FD00000440028002800100010002800280044A9
:102FE00000000000004400440028002800100010E9
:102FF0000010001000000000007C00040008001019
:10300000001000200040007C0000000000180010AC
:103010000010001000100010001000100010001828
:103020000020002000100010001000100008000810
:103030000000000000300010001000100010001010
:10304000001000100010003000100028002800447C
:103050000000000000000000000000000000000070
:10306000000000000000000000000000000000FE62
:103070000020001000000000000000000000000020
:10308000000000000000000000380044003C004444
:10309000004C003400000000004000400058006474
:1030A00000440044006400580000000000000000DC
:1030B0000038004400400040004400380000000098
:1030C000000400040034004C00440044004C003470
:1030D000000000000000000000380044007C0040B8
:1030E0000044003800000000000C0010007C0010BC
:1030F0000010001000100010000000000000000090
:103100000034004C00440044004C003400040078BB
:103110000040004000580064004400440044004463
:1031200000000000001000000070001000100010EF
:1031300000100010000000000010000000700010DF
:103140000010001000100010001000E000400040CF
:10315000004800500060005000480044000000009B
:10316000007000100010001000100010001000107F
:1031700000000000000000000078005400540054DB
:1031800000540054000000000000000000580064DB
:10319000004400440044004400000000000000001F
:1031A000003800440044004400440038000000009F
:1031B000000000000058006400440044006400580F
:1031C00000400040000000000034004C0044004477
:1031D000004C0034000400040000000000580064AB
:1031E00000400040004000400000000000000000DF
:1031F000003800440030000800440038000000009F
:10320000002000200078002000200020002000186E
:10321000000000000000000000440044004400449E
:10322000004C003400000000000000000044004496
:103230000028002800280010000000000000000006
:10324000005400540054006C0028002800000000C6
:103250000000000000440028001000100028004476
:103260000000000000000000004400440028002886
:10327000001000100010006000000000007C00083A
:10328000001000200040007C00000000001800102A
:103290000010001000200020001000100010001886
:1032A000001000100010001000100010001000109E
:1032B000001000100030001000100010000800087E
:1032C000001000100010003000000000000000742A
:1032D000004C0000000000000000000000000000A2
:1032E00000000000000000000000000000000000DE
:1032F00000000000000000000000000000000000CE
:103300000000000C000C000C000C000C000C000C69
:10331000000C000C000C000C0000000C000C000065
:10332000000000000000001B001B001B001B001B16
:10333000000000000000000000000000000000008D
:1033400000000000000000000000801980198019B2
:103350008019C07FC07F80190033C07FC07F0033D9
:103360000033003300330000000000000000001EA6
:10337000003F807580650074003C001E00078005DA
:10338000806580658075003F001E00040004000019
:103390000000007000D840D8C0D880D90073000663
:1033A000000C801BC036C066C046C006800300000B
:1033B000000000000000001E003F00330033003317
:1033C000001E000CC03CC066806380618063C03E0C
:1033D000801C0000000000000000000C000C000C2D
:1033E000000C000C000000000000000000000000C5
:1033F000000000000000000000000000800000014C
:103400000003000600060004000C000C000C000C79
:10341000000C000C00040006000600030001800000
:10342000002000100018000C000C0004000600062C
:1034300000060006000600060004000C000C001840
:10344000001000200000000C002D003F001E003383
:10345000000000000000000000000000000000006C
:103460000000000000000000000000000000000C50
:10347000000C000C000CC0FFC0FF000C000C000C86
:10348000000C000000000000000000000000000030
:10349000000000000000000000000000000000002C
:1034A000000000000000000C000C000400040008F4
:1034B000000000000000000000000000000000000C
:1034C0000000001E001E00000000000000000000C0
:1034D00000000000000000000000000000000000EC
:1034E0000000000000000000000000000000000CD0
:1034F000000C0000000000000000000300030003B7
:103500000006000600060006000C000C000C000C73
:103510000018001800180000000000000000001E45
:10352000003F0033806180618061806D806D8061CB
:10353000806180610033003F001E00000000000039
:1035400000000006000E001E0036002600060006E1
:103550000006000600060006000600060006000041
:10356000000000000000001E003F80738061806149
:10357000800100030006000C001800300060807F0E
:10358000807F0000000000000000001C003E00637F
:1035900000630003000E000E0003800180018061C3
:1035A0008073003F001E00000000000000000006C5
:1035B000000E000E001E001E0016003600360066CB
:1035C000807F807F000600060006000000000000EB
:1035D0000000007F007F006000600060006E007FE0
:1035E00080638001800180618073003F001E0000C5
:1035F000000000000000001E003F8033806100607A
:10360000006E007F80738061806180618033003F45
:10361000001E0000000000000000807F807F80010D
:103620000003000300060006000C000C000C00085C
:103630000018001800180000000000000000001E24
:10364000003F8063806180610021001E003F806137
:10365000806180618061003F001E0000000000006A
:103660000000001E003F00738061806180618073F4
:10367000803F801D800180610073003F001E0000BC
:103680000000000000000000000000000000000C2E
:10369000000C000000000000000000000000000C12
:1036A000000C00000000000000000000000000000E
:1036B00000000000000C000C0000000000000000F2
:1036C0000000000C000C00040004000800000000D2
:1036D0000000000080008003000E00380060003809
:1036E000000E8003800000000000000000000000C9
:1036F00000000000000000000000807F807F0000CC
:103700000000807F807F00000000000000000000BB
:1037100000000000000000000000000000400070F9
:10372000001C000780010007001C00700040000022
:1037300000000000000000000000001F803FC0717A
:10374000C060C000C00180030007000E000C000C28
:103750000000000C000C0000000000000000001E33
:10376000003F803180718063806F806D806D806FDD
:10377000806700600032003E001C00000000000076
:103780000000000E000E001B001B001B001B803100
:103790008031803F803F8031C060C060C0600000E9
:1037A000000000000000007C007E006300630063F6
:1037B0000063007E007E0063806180618063007F23
:1037C000007E0000000000000000001E003F80316D
:1037D00080610060006000600060006000608061E7
:1037E0008031003F001E0000000000000000007C4F
:1037F000007F00638063806180618061806180619F
:10380000806100630063007E007C00000000000017
:103810000000807F807F0060006000600060007FAB
:10382000007F0060006000600060807F807F00009B
:10383000000000000000807F807F0060006000606A
:103840000060007F007F006000600060006000603A
:1038500000600000000000000000001E003F8031FA
:1038600080610060006000608063806380618061CF
:103870008031803F001E00000000000000008061D9
:1038800080618061806180618061807F807F8061F4
:1038900080618061806180618061000000000000C3
:1038A0000000003F003F000C000C000C000C000C5E
:1038B000000C000C000C000C000C003F003F00004E
:1038C0000000000000008001800180018001800173
:1038D0008001800180018001806180618073003FF0
:1038E000001E0000000000000000C0608061006356
:1038F00000660066006C0078007C0066006600636D
:1039000080618061C0600000000000000000006075
:1039100000600060006000600060006000600060A7
:10392000006000600060807F807F00000000000079
:103930000000C071C071C07BC07AC06AC06AC06E2E
:10394000C064C060C060C060C060C060C060000093
:10395000000000000000807180718079807980799A
:10396000806D806D806D8065806780678067806313
:1039700080630000000000000000001E003F0033D4
:10398000806180618061806180618061806180612F
:103990000033003F001E0000000000000000007E19
:1039A000007F80638061806180618063007F007E32
:1039B0000060006000600060006000000000000027
:1039C0000000001E003F00338061806180618061E3
:1039D00080618061806580670033803F401E000009
:1039E000000000000000007E007F80638061806135
:1039F0008063007F007E00660063006380618061F9
:103A0000C0600000000000000000000E001F8031B8
:103A1000803100300038001E000780038061806123
:103A20008031003F001E0000000000000000C0FFC9
:103A3000C0FF000C000C000C000C000C000C000C73
:103A4000000C000C000C000C000C0000000000003A
:103A5000000080618061806180618061806180613F
:103A600080618061806180618073003F001E000082
:103A7000000000000000C060C060C0608031803184
:103A80008031001B001B001B001B000E000E000EEF
:103A900000040000000000000000C0C0C0C0C0C0A2
:103AA000C0C0C0C0C0CC804C804C805E8052805270
:103AB0008073806180610000000000000000C0C0D1
:103AC000806080610033003B001E000C000C001E73
:103AD000001F003B80718061C0C00000000000003A
:103AE0000000C0C08061806100330033001E001EF2
:103AF000000C000C000C000C000C000C000C000072
:103B0000000000000000803F803F800100030003B0
:103B10000006000C000C0018001800300060807FC8
:103B2000807F000000000000000F000F000C000C60
:103B3000000C000C000C000C000C000C000C000C25
:103B4000000C000C000C000C000F000F000000180F
:103B500000180018000C000C000C000C00060006F9
:103B60000006000600030003000300000000000040
:103B7000001E001E000600060006000600060006E5
:103B80000006000600060006000600060006000605
:103B9000001E001E0000000C000C001E001200336E
:103BA0000033806180610000000000000000000020
:103BB0000000000000000000000000000000000005
:103BC00000000000000000000000000000000000F5
:103BD0000000000000000000E0FF000000000038CE
:103BE0000018000C000000000000000000000000B1
:103BF00000000000000000000000000000000000C5
:103C000000000000000000000000001F803F8061F5
:103C10008001801F803F80618063807FC03800000A
:103C20000000000000000060006000600060006EA6
:103C3000007F807380618061806180618073007F1C
:103C4000006E000000000000000000000000000006
:103C50000000001E003F8073806100600060806192
:103C60008073003F001E0000000000000000800183
:103C7000800180018001801D803F807380618061B0
:103C8000806180618073803F801D00000000000023
:103C900000000000000000000000001E003F007354
:103CA0008061807F807F00608071003F001E000087
:103CB000000000000000C007C00F000C000C807F57
:103CC000807F000C000C000C000C000C000C000CA1
:103CD000000C0000000000000000000000000000D8
:103CE000801D803F8073806180618061806180730E
:103CF000803F801D80018063007F003E00000060E7
:103D0000006000600060006F807F80718061806172
:103D1000806180618061806180610000000000003E
:103D200000000006000600000000003E003E000605
:103D30000006000600060006000600060006000059
:103D4000000000000006000600000000003E003EEB
:103D50000006000600060006000600060006000633
:103D600000060046007E003C00000060006000602D
:103D70000060806100630066006C007C0076006378
:103D800000638061C0600000000000000000003E91
:103D9000003E0006000600060006000600060006BB
:103DA00000060006000600060006000000000000F5
:103DB0000000000000000000000080DDC0FFC0CE59
:103DC000C0CCC0CCC0CCC0CCC0CCC0CCC0CC00001F
:103DD0000000000000000000000000000000006F74
:103DE000807F80718061806180618061806180619D
:103DF00080610000000000000000000000000000E2
:103E00000000001E003F80738061806180618061DE
:103E10008073003F001E0000000000000000000052
:103E200000000000006E007F80738061806180610F
:103E300080618073007F006E006000600060006041
:103E40000000000000000000801D803F8073806142
:103E50008061806180618073803F801D800180016E
:103E600080018001000000000000000000000067E9
:103E7000803F00390030003000300030003000302A
:103E80000030000000000000000000000000000002
:103E90000000001E803F80610060007F803F800145
:103EA0008061007F001E0000000000000000000094
:103EB000000800180018007F007F00180018001884
:103EC000001800180018801F800F0000000000007C
:103ED000000000000000000000008061806180613F
:103EE00080618061806180618063807F803D0000AF
:103EF0000000000000000000000000000000C060A2
:103F0000803180318031001B001B001B000E000E31
:103F1000000600000000000000000000000000009B
:103F2000000080DD80DD80DD005500550055007704
:103F300000770022002200000000000000000000C6
:103F4000000000000000806100330033001E000C00
:103F5000000C001E003300338061000000000000F0
:103F600000000000000000008061806180310033AB
:103F70000033001B001B001B000E000E000E001C77
:103F8000007C007000000000000000000000C07F06
:103F9000C07F800100030006000C00180030C07FC5
:103FA000C07F0000000000008003800700060006BC
:103FB000000600060006000E001C001C000E000695
:103FC00000060006000600068007800300060006C3
:103FD00000060006000600060006000600060006B1
:103FE00000060006000600060006000600060006A1
:103FF0000038003C000C000C000C000C000C000E03
:1040000000070007000E000C000C000C000C000C58
:10401000003C00380000000000000000000000002C
:1040200000008038807F0047000000000000000092
:104030000000000000000000000000000000000080
:104040000000000000000000000000000000000070
:104050000000000000000000000000000000000060
:10406000000000000000000000000000E003E0038A
:10407000E003E003E003E003E003E003C003C00368
:10408000C001C001C001C001C0010000000000006B
:10409000E003E003E0030000000000000000000077
:1040A0003C1E3C1E3C1E3C1E3C1E3C1E3C1E00009A
:1040B0000000000000000000000000000000000000
:1040C00000000000000000000000000000000000F0
:1040D00000000000CE01CE03DE039E039C039C077C
:1040E000FF3FFF7F3807380F780F780F780EFFFFFC
:1040F000FFFFF01EF01CE01CE03CE03DE03900005A
:104100000000000000000000FC03FE0FEE1FE01E98
:10411000E01EE01EE01EE01FE00FE007F003FC01E0
:10412000FE01FE01FE01FE01FE01FE01FE3DFC3F1F
:10413000F00FE001E001000000000000033E07F77F
:104140008FE78EE79EE3BCE3B8E7F8E7F0F7E03FE0
:10415000C001FF03FF07F307F30FF31EF33CF3382F
:10416000F3787FF03FE00000000000000000000056
:10417000E007F80F780F781F781F781F780FF00F7F
:10418000E00F801FC37FC3FBE7F3F7F1F7F0FFF009
:104190007FF03EF87F7CFF3FEF1F00000000000033
:1041A00000000000E003E003E003E003E003C003DD
:1041B000C00100000000000000000000000000003E
:1041C00000000000000000000000000000000000EF
:1041D00000000000000000003F007C00F001E00152
:1041E000C003C00780078007800F000F000F000F7B
:1041F000000F000F000F800F80078007C007C0036B
:10420000E001F0017C003F000F000000007E001F75
:10421000C007C003E001F001F000F000F8007800F2
:1042200078007800780078007800F800F000F0005E
:10423000F001E001C003C007001F007E007800000D
:10424000E003C003C001CE39FF3F7F3F200370036E
:10425000F807780F3C1F380600000000000000003F
:10426000000000000000000000000000000000004E
:10427000000000000000000000000000000000003E
:10428000C001C001C001C001C001C001C001FFFFE9
:10429000FFFFC001C001C001C001C001C00100009A
:1042A000000000000000000000000000000000000E
:1042B00000000000000000000000000000000000FE
:1042C00000000000000000000000E003E003E00345
:1042D000E003E001E001E001C00180030000000014
:1042E00000000000000000000000000000000000CE
:1042F0000000FE3FFE3F0000000000000000000044
:1043000000000000000000000000000000000000AD
:10431000000000000000000000000000000000009D
:10432000000000000000000000000000000000008D
:104330000000E003E003E003E003000000000000F1
:10434000000000000F000F001E001E003C003C009B
:1043500078007800F000F000E001E001C003C00345
:1043600080078007000F000F001E001E003C003C6D
:104370000078007800F00000F007F80F7C1F3E3E48
:104380001E3C1F7C1F7C0F780F780F780F780F78FA
:104390000F780F781F7C1F7C1E3C3E3E7C1FF80F61
:1043A000F00700000000000000000000F000F0072F
:1043B000F03FF03FF001F001F001F001F001F001F9
:1043C000F001F001F001F001F001F001F001F00165
:1043D000F001FF3FFF3F0000000000000000000070
:1043E000E00FF83F7C3C3C003E003E003E003C00BD
:1043F0003C007C00F800F001E003C0078007000FDC
:10440000001E003E003CFE3FFE3F0000000000009A
:1044100000000000F00FF81F7C1C3E003E003E0034
:104420003C003C00F800F00FF80F7C003E001E003E
:104430001E001E001E003E007C1CF81FE01F000036
:1044400000000000000000007800F800F800F8010B
:10445000F803F807F807780F781E781E783C78780C
:104460007878FFFFFFFF7800780078007800780008
:10447000780000000000000000000000FC1FFC1F8E
:10448000FC1F001E001E001E001E001EE01FF81F65
:10449000FC007C003E003E001E003E003E003C0052
:1044A0007C1CF81FE01F000000000000000000005E
:1044B000FC01FE078E0F001F001E003E003C003C6A
:1044C000F83DFC3F3E7F1F7E0F3C0F3C0F3C0F3CF6
:1044D0000F3E1F1E3E1FFC0FF003000000000000F7
:1044E00000000000FF3FFF3FFF3F0F001E001E00C7
:1044F0003C0038007800F000F000E001E001C0036B
:10450000C0038007800F800F000F001F001F0000F6
:104510000000000000000000F807FC0F3E1F1E1EF8
:104520001E3E1E3E1E1E3C1FF80FF007F80FFC1E1D
:104530003E3E1F3C1F7C0F7C0F7C1F3C3E3FFC1F00
:10454000F00700000000000000000000F007F80F76
:104550007C1E3E3C1E3C1F7C1F7C1F7C1F7C1F3C26
:104560003F3EFF1FEF071F001E001E003E003C00E5
:10457000F838F03FE01F00000000000000000000DD
:10458000000000000000000000000000E003E00365
:10459000E003E00300000000000000000000000055
:1045A0000000E003E003E003E0030000000000007F
:1045B00000000000000000000000000000000000FB
:1045C000E003E003E003E00300000000000000005F
:1045D000000000000000E003E003E003E003E0016E
:1045E000E001E001C00380030000000000000000C3
:1045F0000000000003000F003F00FC00F003C00FAC
:10460000003F00FE003FC00FF003FC003F000F0022
:104610000300000000000000000000000000000097
:10462000000000000000000000000000000000008A
:10463000FFFFFFFF000000000000FFFFFFFF000082
:10464000000000000000000000000000000000006A
:1046500000000000000000000000000000E000F882
:10466000007E801FE007F8017E001F007E00F80139
:10467000E007801F007E00F800E00000000000005E
:1046800000000000F01FFC3F3E381F381F381E009E
:104690001E003C007800F000E001C003C003C0072A
:1046A000C007000000000000C007C007C0070000EE
:1046B0000000000000000000F803FE0F1E1F0F3E68
:1046C0007F3CFF78EF79C773C7F38FF38FF38FF3D6
:1046D0009FF39FF3FF73FF7BF779003C1C1FFC0FD8
:1046E000F8030000000000000000000000000000CF
:1046F0000000E003E003F007F007F007780F780F01
:104700007C0E3C1E3C1E3E3CFE3FFF3F1F780F7858
:104710000FF007F007F000000000000000000000AC
:10472000000000000000F83FFC3F3E3C1E3C1E3CE9
:104730001E3C3E3C7C3CF03FF83F7E3C1F3C1F3C17
:104740000F3C0F3C1F3CFE3FF83F00000000000004
:1047500000000000000000000000FF01FF07871FAD
:10476000003E003C007C00780078007800780078FB
:10477000007C007C003E003F831FFF07FF0100001C
:104780000000000000000000000000000000F07FBA
:10479000FC7F7E781F781F780F780F780F780F785E
:1047A0000F780F780F780F781F781E787E78F87F53
:1047B000E07F00000000000000000000000000009A
:1047C0000000FF3FFF3F003E003E003E003E003E37
:1047D000003EFE3FFE3F003E003E003E003E003EEB
:1047E000003EFF3FFF3F000000000000000000000F
:1047F000000000000000FF1FFF1F001E001E001E23
:10480000001E001E001EFF1FFF1F001E001E001EB8
:10481000001E001E001E001E001E00000000000002
:1048200000000000000000000000FE03FF0F871FD3
:10483000003E007C007C007800F800F87FF87FF8EC
:104840000F780F7C0F7C0F3E8F1FFF0FFE030000C1
:1048500000000000000000000000000000001F7CBD
:104860001F7C1F7C1F7C1F7C1F7C1F7C1F7CFF7F8D
:10487000FF7F1F7C1F7C1F7C1F7C1F7C1F7C1F7C7D
:104880001F7C00000000000000000000000000008D
:104890000000FF3FFF3FE003E003E003E003E0032D
:1048A000E003E003E003E003E003E003E003E003F0
:1048B000E003FF3FFF3F0000000000000000000099
:1048C000000000000000FC1FFC1F7C007C007C003E
:1048D0007C007C007C007C007C007C007C007C00F8
:1048E00078007800F838F03FC03F0000000000007A
:1048F000000000000000000000001F3C1E3C3C3C8B
:10490000783CF03CE03DE03FC03F803FC03FE03FAF
:10491000F03DF03C783C7C3C3E3C1F3C0F3C0000B2
:104920000000000000000000000000000000003E49
:10493000003E003E003E003E003E003E003E003E87
:10494000003E003E003E003E003E003E003EFF3F77
:10495000FF3F000000000000000000000000000019
:1049600000001FF81FFC1FFC3FFE3FFE3FFE7FFFC5
:1049700077FF77FFF7F7E7F7E7F3E7F3C7F307F01A
:1049800007F007F007F00000000000000000000042
:104990000000000000000F7C0F7C0F7E0F7F0F7F58
:1049A0008F7F8F7FCF7FEF7BEF79FF79FF78FF7865
:1049B0007F783F783F781F781F7800000000000064
:1049C00000000000000000000000F007FC1F3E3E59
:1049D0001F7C0F780F780FF80FF80FF80FF80FF80B
:1049E0000FF80F780F781F7C3E3EFC1FF007000089
:1049F0000000000000000000000000000000FC3F7C
:104A0000FF3F1F3E0F3E0F3E0F3E0F3E1F3E3F3EFD
:104A1000FC3FF03F003E003E003E003E003E003EB8
:104A2000003E000000000000000000000000000048
:104A30000000F007FC1F3E3E1F7C0F780F780FF838
:104A40000FF80FF80FF80FF80FF80F780F781F7C9A
:104A50003E3EFC1FF8077C003F000F0003000000F3
:104A6000000000000000F03FFC3F7E3C3E3C1E3C4E
:104A70001E3C3E3C3C3CFC3CF03FE03FF03DF83C03
:104A80007C3C3E3C1E3C1F3C0F3C000000000000F4
:104A900000000000000000000000FC07FE1F0E3EAA
:104AA000003C003C003C003EC01FF80FFE037F00AE
:104AB0001F000F000F001F203E3CFC3FF01F0000B6
:104AC0000000000000000000000000000000FFFFE8
:104AD000FFFFE003E003E003E003E003E003E003A3
:104AE000E003E003E003E003E003E003E003E003AE
:104AF000E0030000000000000000000000000000D3
:104B000000000F7C0F7C0F7C0F7C0F7C0F7C0F7CD8
:104B10000F7C0F7C0F7C0F7C0F7C0F7C1E3C1E3C9F
:104B20003E3EFC1FF00700000000000000000000F7
:104B300000000000000007F007F007F80F780F7C76
:104B40001E3C1E3C1E3E3C1E3C1F781F780FF80F7B
:104B5000F007F007F007E003E003000000000000AA
:104B60000000000000000000000003E003F003F07C
:104B700007F0E7F3E7F3E7F3E773F77BF77FFF7FF0
:104B80007F7F7F7F7E7F7E3F3E3E3E3E3E3E0000FB
:104B9000000000000000000000000000000007F816
:104BA0000F7C1E3E3E3E3C1FF80FF007E007E0037F
:104BB000E003F007F80F7C0F7C1E3E3C1F780F7857
:104BC0000FF00000000000000000000000000000E6
:104BD000000007F807780F7C1E3C1E3E3C1F780F34
:104BE000F80FF007E003E003E003E003E003E00375
:104BF000E003E003E003000000000000000000000C
:104C0000000000000000FF7FFF7F0F001F003E003C
:104C10007C00F800F000E001E003C007800F000F07
:104C2000001E003E007CFF7FFF7F000000000000B0
:104C300000000000FF0780078007800780078007CB
:104C4000800780078007800780078007800780072C
:104C5000800780078007800780078007800780071C
:104C60008007FF07FF07000000780078003C003C49
:104C7000001E001E000F000F80078007C003C00346
:104C8000E001E001F000F000780078003C003C001A
:104C90001E001E000F000F0007000000F07FF00054
:104CA000F000F000F000F000F000F000F000F00084
:104CB000F000F000F000F000F000F000F000F00074
:104CC000F000F000F000F000F000F07FF07F000056
:104CD000C000C001C001E003E003F007F00778075F
:104CE000780F380F3C1E3C1E1E3C1E3C0F380F78C0
:104CF0000778000000000000000000000000000035
:104D000000000000000000000000000000000000A3
:104D10000000000000000000000000000000000093
:104D20000000000000000000000000000000FFFF85
:104D3000FFFF000000000000F00000000000000085
:104D40000000000000000000000000000000000063
:104D50000000000000000000000000000000000053
:104D60000000000000000000000000000000000043
:104D70000000000000000000F80FFC3F7C3C3E00FB
:104D80003E003E00FE07FE1F3E3E3E7C3E783E7CDF
:104D90007E7CFF3FCF1F00000000000000000000ED
:104DA000003C003C003C003C003C003CF83DFE3F29
:104DB0003E3F1F3E0F3C0F3C0F3C0F3C0F3C0F3C57
:104DC0001F3C1E3C3E3FFC3FF03B0000000000004B
:104DD00000000000000000000000000000000000D3
:104DE000FE03FF0F871F003E003E003C007C007C5E
:104DF000007C003C003E003E871FFF0FFE030000CA
:104E000000000000000000001F001F001F001F0026
:104E10001F001F00FF07FF1F3F3E1F3C1F7C1F7C22
:104E20001F7C1F781F781F7C1F7C3F3C7F3EFF1F2D
:104E3000DF0F000000000000000000000000000084
:104E40000000000000000000F803FC0F3E1F1E3EA3
:104E50001F3C1F7CFF7FFF7F007C007C003C003EEE
:104E6000071FFF0FFE03000000000000000000000D
:104E7000FF01E103C003C007C007C007FF7FFF7F3A
:104E8000C007C007C007C007C007C007C007C007EA
:104E9000C007C007C007C007C0070000000000002F
:104EA0000000000000000000000000000000000002
:104EB000EF07FF1F7F3E1F3C1F7C1F7C1F781F7862
:104EC0001F781F7C1F7C3F3C7F3EFF1FDF0F1E00B3
:104ED0001E001E007C38F83F003C003C003C003CBB
:104EE000003C003CFC3DFE3F9E3F1F3F1F3E1F3CE1
:104EF0001F3C1F3C1F3C1F3C1F3C1F3C1F3C1F3CDA
:104F00001F3C00000000000000000000F001F00164
:104F10000000000000000000E07FE07FE001E00111
:104F2000E001E001E001E001E001E001E001E00179
:104F3000E001E001E00100000000000000000000CE
:104F4000F800F8000000000000000000F83FF83F03
:104F5000F800F800F800F800F800F800F800F80091
:104F6000F800F800F800F800F800F800F800F00089
:104F7000F071E07F003C003C003C003C003C003C09
:104F80001F3C3E3C7C3CF83CF03DE03DC03FC03F18
:104F9000E03FF03DF83C7C3C3E3C1F3C1F3C0000A9
:104FA0000000000000000000F07FF001F001F001BF
:104FB000F001F001F001F001F001F001F001F00169
:104FC000F001F001F001F001F001F001F001F00159
:104FD000F0010000000000000000000000000000E0
:104FE00000000000000000009EF7FFFFFFFFFFFF32
:104FF000E7FBE7F9C7F1C7F1C7F1C7F1C7F1C7F19F
:10500000C7F1C7F1C7F10000000000000000000078
:10501000000000000000000000000000FC3DFE3F1A
:105020009E3F1F3F1F3E1F3C1F3C1F3C1F3C1F3C21
:105030001F3C1F3C1F3C1F3C1F3C000000000000A9
:105040000000000000000000000000000000000060
:10505000F007FC1F3E3E1F3C1F7C0F780F780F7837
:105060000F780F781F7C1F3C3E3EFC1FF0070000AE
:105070000000000000000000000000000000000030
:1050800000000000F83DFE3F3E3F1F3E0F3C0F3C3E
:105090000F3C0F3C0F3C0F3C1F3C1E3E3E3FFC3F75
:1050A000F83F003C003C003C003C003C000000009D
:1050B0000000000000000000EE07FE1F7E3E1E3CC8
:1050C0001E7C1E781E781E781E781E781E7C3E7C04
:1050D0007E3EFE1FDE0F1E001E001E001E001E0074
:1050E0000000000000000000000000007F1FFF1F04
:1050F000E71FC71F871F001F001F001F001F001F83
:10510000001F001F001F001F001F00000000000004
:10511000000000000000000000000000000000008F
:10512000FC07FE1F0E1E003E003E003FE01FFC0776
:10513000FE003E001E001E003E3CFC3FF01F000033
:1051400000000000000000000000000000008007D8
:1051500080078007FF7FFF7F800780078007800729
:10516000800780078007800780078007C007FF034C
:10517000FF0100000000000000000000000000002F
:1051800000000000000000001E3C1E3C1E3C1E3CB7
:105190001E3C1E3C1E3C1E3C1E3C1E3C3E3C7E3CBF
:1051A000FE3EFE1FDE0F00000000000000000000B9
:1051B00000000000000000000000000007F00F7871
:1051C0000F781E3C1E3C1E3E3C1E3C1E780F780F86
:1051D000F00FF007F007E003E0030000000000001C
:1051E00000000000000000000000000000000000BF
:1051F00003F0E3F1E3F3E7F3F7F3F7F3F77F777FF8
:105200007F7F7F7F7F7F3E3E3E3E3E3E3E3E0000B4
:10521000000000000000000000000000000000008E
:10522000000000000F7C1E3E3C3E3C1FF80FF007C4
:10523000F007E003F007F807F80F7C1E3E3E1F3C26
:105240001F780000000000000000000000000000C7
:10525000000000000000000007F80F780F7C1E3CE3
:105260001E3C3C1E3C1E3C1F780FF80FF007F00759
:10527000E003E003C003C003C0038007800F007F8A
:10528000000000000000000000000000FF3FFF3FA2
:105290001F003E007C00F800F001E003C007800F13
:1052A000001F001E003CFF7FFF7F00000000000089
:1052B00000000000FE01E003C003C003C003C00300
:1052C000E001E001E001C001C003803F803FC00376
:1052D000C001E001E001E001C003C003C003C0035E
:1052E000E003FE017E000000C001C001C001C0015A
:1052F000C001C001C001C001C001C001C001C001A6
:10530000C001C001C001C001C001C001C001C00195
:10531000C001C001C001C001C0010000C03FE003E6
:10532000E001E001E001E001C001C003C003C001F1
:10533000E001FE00FE00E001C001C003C003C001A7
:10534000E001E001E001E001E003C03F003F0000B8
:10535000000000000000000000000000000000004D
:10536000000000000000073FC77FE773FFF17EF0F9
:10537000000000000000000000000000000000002D
:105380000000000000000000000000000102030413
:10539000060708090000000001020304BC530008CE
:1053A000000000201001000004200008CC54000878
:1053B00010010020C808000014200008070A00009F
:1053C000702B00080B120000DC320008101A0000DD
:1053D000384000080000000000000000000000004D
:1053E00001000000000000000000000000000000BC
:1053F00001000000190000001E0000002000000055
:105400003400000000000000000000000000000068
:1054100080000000100000004000000014000000A8
:10542000050000000A000000320000001E0000001D
:10543000460000003C000000500000002800000072
:105440005A00000014000000640000000A00000080
:10545000320000001E000000460000003C0000007A
:1054600050000000280000005A0000001400000056
:105470001E0000003200000028000000190000009B
:10548000280000003200000014000000230000008B
:105490002D00000014000000230000003200000076
:1054A0002800000019000000280000003200000061
:1054B00014000000230000002D0000000100000087
:0C54C00010000000000000000024F400B8
:04000005080000ED02
:00000001FF
